:020000040800F2
:100000008004002061030008E5030008E503000800
:10001000E5030008E5030008E5030008E503000820
:10002000E5030008E5030008E5030008E503000810
:10003000E5030008E5030008E5030008E503000800
:10004000E5030008E5030008E5030008E5030008F0
:10005000E503000880B400AF044B1B68034A43F07B
:100060000103136000BFBD4680BC704700380240EA
:1000700080B400AF044B054A5A60034B044A5A60EF
:1000800000BFBD4680BC7047003C0240230167456D
:10009000AB89EFCD80B400AF044B1B69034A43F03A
:1000A0000043136100BFBD4680BC7047003C024066
:1000B00080B483B000AF786000BF134BDB6803F4FB
:1000C0008033002BF9D1104B1B690F4A43F0020318
:1000D00013610D4B1A697B68DB000B4913430B61FD
:1000E000094B1B69084A43F48033136100BF064B78
:1000F000DB6803F48033002BF9D100BF00BF0C375D
:10010000BD4680BC704700BF003C024080B586B051
:1001100000AFF860B9607A6000237B61BB68002B98
:1001200007D07B68002B04D07B6803F00303002B0F
:1001300001D0002333E000BF1B4BDB6803F48033A6
:10014000002BF9D1FFF794FF174B1B69164A43F0B8
:100150000103136100237B610CE07B699B00BA689B
:1001600013447A699100FA680A441B6813607B693A
:1001700001337B617B689B087A699A42EDD300BFAB
:10018000094BDB6803F48033002BF9D1064B1B6964
:10019000054A23F001031361FFF77CFF0123184692
:1001A0001837BD4680BD00BF003C024080B487B018
:1001B00000AFF860B9607A60BB68002B02D07B6842
:1001C000002B01D1002313E000237B610BE0FA68D0
:1001D0007B6913441946BA687B6913440A781A701C
:1001E0007B6901337B617A697B689A42EFD3012393
:1001F00018461C37BD4680BC704780B485B000AF40
:1002000078600023FB607B682D4A934206D27B68AE
:10021000B3F1006F02D30023FB604BE07B68294AF7
:10022000934206D27B68264A934202D30123FB60A5
:1002300040E07B68244A934206D27B68214A93427D
:1002400002D30223FB6035E07B68204A934206D844
:100250007B681D4A934202D30323FB602AE07B683C
:100260001B4A934206D87B68184A934202D904235A
:10027000FB601FE07B68174A934206D87B68144AEC
:10028000934202D90523FB6014E07B68124A934233
:1002900006D87B680F4A934202D90623FB6009E027
:1002A0007B680E4A934205D27B680B4A934201D980
:1002B0000723FB60FB6818461437BD4680BC7047B7
:1002C000004000080080000800C00008FFFF000890
:1002D000FFFF0108FFFF0308FFFF0508FFFF0708F6
:1002E00080B500AF00F004F80023184680BD000080
:1002F00080B586B000AFFFF7ADFE0D4BFB600D4A39
:100300003B1D92E8030083E80300FB68391D0822C7
:100310001846FFF7FBFE0346FB75054B3B61FB7D73
:100320000121184600F008F800BF1837BD4680BD0F
:1003300000000108EC03000880B483B000AF7860CF
:1003400039607A683B689A4202D0044B01221A60F5
:1003500000BF0C37BD4680BC704700BF00000020C6
:1003600080B586B000AF1A4A1A4BD31A7B60194B7E
:100370007B61194B3B610023FB600AE03A69531C27
:100380003B617B69591C796112781A70FB680133F3
:10039000FB60FA687B689A42F0D3104A104BD31A7C
:1003A0007B600F4B7B610023BB6007E07B695A1CBD
:1003B0007A6100221A70BB680133BB60BA687B683F
:1003C0009A42F3D3FFF78CFF00BF1837BD4680BDBC
:1003D0000400002004000020F403000804000020B2
:1003E0000400002080B400AFFEE700BF000102035C
:0403F00004050607F3
:020000042000DA
:0400000000000000FC
:04000005080003618B
:00000001FF
