:020000040800F2
:100000000050002041020008CB020008D102000885
:10001000D7020008DD020008E3020008000000002B
:10002000000000000000000000000000E9020008DD
:10003000EF02000800000000F5020008FB020008C3
:1000400007030008130300081F0300082B03000820
:1000500037030008430300084F0300085B03000850
:1000600067030008730300087F0300088B03000880
:1000700097030008A3030008AF030008BB030008B0
:10008000C7030008D3030008DF030008EB030008E0
:10009000F7030008030400080F0400081B0400080D
:1000A00027040008330400083F0400084B0400083C
:1000B00057040008630400086F0400087B0400086C
:1000C00087040008930400089F040008AB0400089C
:1000D000B7040008C3040008CF040008DB040008CC
:1000E000E7040008F3040008FF0400080B050008FB
:1000F00017050008230500082F0500083B05000828
:1001000047050008530500085F0500086B05000857
:1001100077050008830500088F0500089B05000887
:10012000A7050008B3050008BF050008CB050008B7
:10013000D7050008E3050008EF050008FB050008E7
:1001400007060008130600081F0600082B06000813
:1001500037060008430600084F0600085B06000843
:1001600067060008730600087F0600088B06000873
:1001700097060008A3060008AF060008BB060008A3
:10018000C7060008D306000880B400AF0D4B9B697A
:100190000C4A43F0100393610B4B5B680A4A23F44B
:1001A00070035360084B5B68074A43F44013536085
:1001B000054BDB68044A43F40053D36000BFBD46DF
:1001C00080BC7047001002400010014080B400AFB6
:1001D000044BDB68034A43F40053D36000BFBD46C1
:1001E00080BC70470010014080B400AF044BDB6856
:1001F000034A23F40053D36000BFBD4680BC704760
:100200000010014080B500AF00F003F8002318464D
:1002100080BD80B500AF00F077FAFFF7B5FFFFF7BC
:10022000E3FF0121012000F05BFA0121012000F031
:1002300057FA0121012000F053FA00BF80BD0000F1
:1002400080B586B000AF1A4A1A4BD31A7B60194B9F
:100250007B61194B3B610023FB600AE03A69531C48
:100260003B617B69591C796112781A70FB68013314
:10027000FB60FA687B689A42F0D3104A104BD31A9D
:100280007B600F4B7B610023BB6007E07B695A1CDE
:100290007A6100221A70BB680133BB60BA687B6860
:1002A0009A42F3D3FFF7AEFF00BF1837BD4680BDBB
:1002B00004000020040000202007000804000020A3
:1002C0000400002080B400AFFEE780B400AFFEE77A
:1002D00080B400AFFEE780B400AFFEE780B400AFAB
:1002E000FEE780B400AFFEE780B400AFFEE780B465
:1002F00000AFFEE780B400AFFEE780B400AF00BF00
:10030000BD4680BC704780B400AF00BFBD4680BC16
:10031000704780B400AF00BFBD4680BC704780B45A
:1003200000AF00BFBD4680BC704780B400AF00BFC7
:10033000BD4680BC704780B400AF00BFBD4680BCE6
:10034000704780B400AF00BFBD4680BC704780B42A
:1003500000AF00BFBD4680BC704780B400AF00BF97
:10036000BD4680BC704780B400AF00BFBD4680BCB6
:10037000704780B400AF00BFBD4680BC704780B4FA
:1003800000AF00BFBD4680BC704780B400AF00BF67
:10039000BD4680BC704780B400AF00BFBD4680BC86
:1003A000704780B400AF00BFBD4680BC704780B4CA
:1003B00000AF00BFBD4680BC704780B400AF00BF37
:1003C000BD4680BC704780B400AF00BFBD4680BC56
:1003D000704780B400AF00BFBD4680BC704780B49A
:1003E00000AF00BFBD4680BC704780B400AF00BF07
:1003F000BD4680BC704780B400AF00BFBD4680BC26
:10040000704780B400AF00BFBD4680BC704780B469
:1004100000AF00BFBD4680BC704780B400AF00BFD6
:10042000BD4680BC704780B400AF00BFBD4680BCF5
:10043000704780B400AF00BFBD4680BC704780B439
:1004400000AF00BFBD4680BC704780B400AF00BFA6
:10045000BD4680BC704780B400AF00BFBD4680BCC5
:10046000704780B400AF00BFBD4680BC704780B409
:1004700000AF00BFBD4680BC704780B400AF00BF76
:10048000BD4680BC704780B400AF00BFBD4680BC95
:10049000704780B400AF00BFBD4680BC704780B4D9
:1004A00000AF00BFBD4680BC704780B400AF00BF46
:1004B000BD4680BC704780B400AF00BFBD4680BC65
:1004C000704780B400AF00BFBD4680BC704780B4A9
:1004D00000AF00BFBD4680BC704780B400AF00BF16
:1004E000BD4680BC704780B400AF00BFBD4680BC35
:1004F000704780B400AF00BFBD4680BC704780B479
:1005000000AF00BFBD4680BC704780B400AF00BFE5
:10051000BD4680BC704780B400AF00BFBD4680BC04
:10052000704780B400AF00BFBD4680BC704780B448
:1005300000AF00BFBD4680BC704780B400AF00BFB5
:10054000BD4680BC704780B400AF00BFBD4680BCD4
:10055000704780B400AF00BFBD4680BC704780B418
:1005600000AF00BFBD4680BC704780B400AF00BF85
:10057000BD4680BC704780B400AF00BFBD4680BCA4
:10058000704780B400AF00BFBD4680BC704780B4E8
:1005900000AF00BFBD4680BC704780B400AF00BF55
:1005A000BD4680BC704780B400AF00BFBD4680BC74
:1005B000704780B400AF00BFBD4680BC704780B4B8
:1005C00000AF00BFBD4680BC704780B400AF00BF25
:1005D000BD4680BC704780B400AF00BFBD4680BC44
:1005E000704780B400AF00BFBD4680BC704780B488
:1005F00000AF00BFBD4680BC704780B400AF00BFF5
:10060000BD4680BC704780B400AF00BFBD4680BC13
:10061000704780B400AF00BFBD4680BC704780B457
:1006200000AF00BFBD4680BC704780B400AF00BFC4
:10063000BD4680BC704780B400AF00BFBD4680BCE3
:10064000704780B400AF00BFBD4680BC704780B427
:1006500000AF00BFBD4680BC704780B400AF00BF94
:10066000BD4680BC704780B400AF00BFBD4680BCB3
:10067000704780B400AF00BFBD4680BC704780B4F7
:1006800000AF00BFBD4680BC704780B400AF00BF64
:10069000BD4680BC704780B400AF00BFBD4680BC83
:1006A000704780B400AF00BFBD4680BC704780B4C7
:1006B00000AF00BFBD4680BC704780B400AF00BF34
:1006C000BD4680BC704780B400AF00BFBD4680BC53
:1006D000704780B400AF00BFBD4680BC704700BF0C
:1006E00080B483B000AF786039607A683B689A4222
:1006F00002D0044B01221A6000BF0C37BD4680BCFB
:10070000704700BF0000002080B400AF034B002200
:100710001A6000BFBD4680BC704700BF00000020CB
:020000042000DA
:0400000000000000FC
:0400000508000241AC
:00000001FF
