:020000040800F2
:1000000080040020BD0100084102000841020008F0
:1000100041020008410200084102000841020008B4
:1000200041020008410200084102000841020008A4
:100030004102000841020008410200084102000894
:100040004102000841020008410200084102000884
:100050004102000880B400AF044B1B68034A43F020
:100060000103136000BFBD4680BC704700380240EA
:1000700080B485B000AF786009E00023FB6002E047
:10008000FB680133FB60FB68B3F57A7FF8D37B68CC
:100090005A1E7A60002BF0D100BF00BF1437BD4656
:1000A00080BC704780B400AF134B1B6B124A43F007
:1000B00004031363114BDB68104A43F08063D36081
:1000C0000D4B1B6B0C4A43F0010313630C4B1B6875
:1000D0000B4A43F480631360094B5B68084A23F0C2
:1000E00020035360064B9B68054A43F4806393608A
:1000F00000BFBD4680BC7047003802400008024087
:100100000000024080B483B000AF01233B603B4657
:100110007B607B681B78002B07D00A4B5B69094A20
:1001200023F020035361012306E0064B5B69054A77
:1001300043F020035361002318460C37BD4680BCB2
:10014000704700BF0000024080B500AF00F004F827
:100150000023184680BD000080B582B000AFFFF7D5
:1001600079FFFFF79FFF094B5B69084A83F0200383
:100170005361074B7B607B681B682021184600F0A9
:1001800009F800BF0837BD4680BD00BF000002402F
:100190001400024080B483B000AF786039607A68A0
:1001A0003B689A4202D0044B01221A6000BF0C3710
:1001B000BD4680BC704700BF0000002080B586B0FF
:1001C00000AF1A4A1A4BD31A7B60194B7B61194B4B
:1001D0003B610023FB600AE03A69531C3B617B6989
:1001E000591C796112781A70FB680133FB60FA6858
:1001F0007B689A42F0D3104A104BD31A7B600F4BA6
:100200007B610023BB6007E07B695A1C7A61002296
:100210001A70BB680133BB60BA687B689A42F3D33B
:10022000FFF792FF00BF1837BD4680BD04000020D5
:100230000400002048020008040000200400002000
:0802400080B400AFFEE700BF2F
:020000042000DA
:0400000000000000FC
:04000005080001BD31
:00000001FF
